{
  "_format": "hh-sol-artifact-1",
  "contractName": "Shipment",
  "sourceName": "contracts/Shipment.sol",
  "abi": [
    {
      "inputs": [
        {
          "internalType": "address",
          "name": "_receiver",
          "type": "address"
        },
        {
          "internalType": "uint256",
          "name": "_pickupTime",
          "type": "uint256"
        },
        {
          "internalType": "uint256",
          "name": "_distance",
          "type": "uint256"
        },
        {
          "internalType": "uint256",
          "name": "_price",
          "type": "uint256"
        },
        {
          "internalType": "string",
          "name": "_uniqueId",
          "type": "string"
        }
      ],
      "stateMutability": "nonpayable",
      "type": "constructor"
    },
    {
      "inputs": [],
      "name": "complete",
      "outputs": [],
      "stateMutability": "nonpayable",
      "type": "function"
    },
    {
      "inputs": [],
      "name": "getShipment",
      "outputs": [
        {
          "components": [
            {
              "internalType": "address",
              "name": "sender",
              "type": "address"
            },
            {
              "internalType": "address",
              "name": "receiver",
              "type": "address"
            },
            {
              "internalType": "uint256",
              "name": "pickupTime",
              "type": "uint256"
            },
            {
              "internalType": "uint256",
              "name": "distance",
              "type": "uint256"
            },
            {
              "internalType": "uint256",
              "name": "price",
              "type": "uint256"
            },
            {
              "internalType": "enum Shipment.Status",
              "name": "status",
              "type": "uint8"
            },
            {
              "internalType": "string",
              "name": "uniqueId",
              "type": "string"
            }
          ],
          "internalType": "struct Shipment.Data",
          "name": "",
          "type": "tuple"
        }
      ],
      "stateMutability": "view",
      "type": "function"
    },
    {
      "inputs": [],
      "name": "shipment",
      "outputs": [
        {
          "internalType": "address",
          "name": "sender",
          "type": "address"
        },
        {
          "internalType": "address",
          "name": "receiver",
          "type": "address"
        },
        {
          "internalType": "uint256",
          "name": "pickupTime",
          "type": "uint256"
        },
        {
          "internalType": "uint256",
          "name": "distance",
          "type": "uint256"
        },
        {
          "internalType": "uint256",
          "name": "price",
          "type": "uint256"
        },
        {
          "internalType": "enum Shipment.Status",
          "name": "status",
          "type": "uint8"
        },
        {
          "internalType": "string",
          "name": "uniqueId",
          "type": "string"
        }
      ],
      "stateMutability": "view",
      "type": "function"
    },
    {
      "inputs": [],
      "name": "start",
      "outputs": [],
      "stateMutability": "nonpayable",
      "type": "function"
    }
  ],
  "bytecode": "0x60806040523480156200001157600080fd5b5060405162001394380380620013948339818101604052810190620000379190620003e5565b6040518060e001604052803373ffffffffffffffffffffffffffffffffffffffff1681526020018673ffffffffffffffffffffffffffffffffffffffff16815260200185815260200184815260200183815260200160006002811115620000a357620000a26200048c565b5b8152602001828152506000808201518160000160006101000a81548173ffffffffffffffffffffffffffffffffffffffff021916908373ffffffffffffffffffffffffffffffffffffffff16021790555060208201518160010160006101000a81548173ffffffffffffffffffffffffffffffffffffffff021916908373ffffffffffffffffffffffffffffffffffffffff16021790555060408201518160020155606082015181600301556080820151816004015560a08201518160050160006101000a81548160ff021916908360028111156200018757620001866200048c565b5b021790555060c0820151816006019081620001a39190620006fc565b509050505050505050620007e3565b6000604051905090565b600080fd5b600080fd5b600073ffffffffffffffffffffffffffffffffffffffff82169050919050565b6000620001f382620001c6565b9050919050565b6200020581620001e6565b81146200021157600080fd5b50565b6000815190506200022581620001fa565b92915050565b6000819050919050565b62000240816200022b565b81146200024c57600080fd5b50565b600081519050620002608162000235565b92915050565b600080fd5b600080fd5b6000601f19601f8301169050919050565b7f4e487b7100000000000000000000000000000000000000000000000000000000600052604160045260246000fd5b620002bb8262000270565b810181811067ffffffffffffffff82111715620002dd57620002dc62000281565b5b80604052505050565b6000620002f2620001b2565b9050620003008282620002b0565b919050565b600067ffffffffffffffff82111562000323576200032262000281565b5b6200032e8262000270565b9050602081019050919050565b60005b838110156200035b5780820151818401526020810190506200033e565b60008484015250505050565b60006200037e620003788462000305565b620002e6565b9050828152602081018484840111156200039d576200039c6200026b565b5b620003aa8482856200033b565b509392505050565b600082601f830112620003ca57620003c962000266565b5b8151620003dc84826020860162000367565b91505092915050565b600080600080600060a08688031215620004045762000403620001bc565b5b6000620004148882890162000214565b955050602062000427888289016200024f565b94505060406200043a888289016200024f565b93505060606200044d888289016200024f565b925050608086015167ffffffffffffffff811115620004715762000470620001c1565b5b6200047f88828901620003b2565b9150509295509295909350565b7f4e487b7100000000000000000000000000000000000000000000000000000000600052602160045260246000fd5b600081519050919050565b7f4e487b7100000000000000000000000000000000000000000000000000000000600052602260045260246000fd5b600060028204905060018216806200050e57607f821691505b602082108103620005245762000523620004c6565b5b50919050565b60008190508160005260206000209050919050565b60006020601f8301049050919050565b600082821b905092915050565b6000600883026200058e7fffffffffffffffffffffffffffffffffffffffffffffffffffffffffffffffff826200054f565b6200059a86836200054f565b95508019841693508086168417925050509392505050565b6000819050919050565b6000620005dd620005d7620005d1846200022b565b620005b2565b6200022b565b9050919050565b6000819050919050565b620005f983620005bc565b620006116200060882620005e4565b8484546200055c565b825550505050565b600090565b6200062862000619565b62000635818484620005ee565b505050565b5b818110156200065d57620006516000826200061e565b6001810190506200063b565b5050565b601f821115620006ac5762000676816200052a565b62000681846200053f565b8101602085101562000691578190505b620006a9620006a0856200053f565b8301826200063a565b50505b505050565b600082821c905092915050565b6000620006d160001984600802620006b1565b1980831691505092915050565b6000620006ec8383620006be565b9150826002028217905092915050565b6200070782620004bb565b67ffffffffffffffff81111562000723576200072262000281565b5b6200072f8254620004f5565b6200073c82828562000661565b600060209050601f8311600181146200077457600084156200075f578287015190505b6200076b8582620006de565b865550620007db565b601f19841662000784866200052a565b60005b82811015620007ae5784890151825560018201915060208501945060208101905062000787565b86831015620007ce5784890151620007ca601f891682620006be565b8355505b6001600288020188555050505b505050505050565b610ba180620007f36000396000f3fe608060405234801561001057600080fd5b506004361061004c5760003560e01c8063188b4d8114610051578063522e11771461006f5780637bf86ad614610079578063be9a65551461009d575b600080fd5b6100596100a7565b604051610066919061084c565b60405180910390f35b610077610258565b005b610081610394565b60405161009497969594939291906108e5565b60405180910390f35b6100a5610499565b005b6100af6105d4565b60006040518060e00160405290816000820160009054906101000a900473ffffffffffffffffffffffffffffffffffffffff1673ffffffffffffffffffffffffffffffffffffffff1673ffffffffffffffffffffffffffffffffffffffff1681526020016001820160009054906101000a900473ffffffffffffffffffffffffffffffffffffffff1673ffffffffffffffffffffffffffffffffffffffff1673ffffffffffffffffffffffffffffffffffffffff1681526020016002820154815260200160038201548152602001600482015481526020016005820160009054906101000a900460ff1660028111156101ab576101aa6106a9565b5b60028111156101bd576101bc6106a9565b5b81526020016006820180546101d19061098a565b80601f01602080910402602001604051908101604052809291908181526020018280546101fd9061098a565b801561024a5780601f1061021f5761010080835404028352916020019161024a565b820191906000526020600020905b81548152906001019060200180831161022d57829003601f168201915b505050505081525050905090565b600060010160009054906101000a900473ffffffffffffffffffffffffffffffffffffffff1673ffffffffffffffffffffffffffffffffffffffff163373ffffffffffffffffffffffffffffffffffffffff16146102eb576040517f08c379a00000000000000000000000000000000000000000000000000000000081526004016102e290610a07565b60405180910390fd5b600160028111156102ff576102fe6106a9565b5b600060050160009054906101000a900460ff166002811115610324576103236106a9565b5b14610364576040517f08c379a000000000000000000000000000000000000000000000000000000000815260040161035b90610a73565b60405180910390fd5b6002600060050160006101000a81548160ff0219169083600281111561038d5761038c6106a9565b5b0217905550565b60008060000160009054906101000a900473ffffffffffffffffffffffffffffffffffffffff16908060010160009054906101000a900473ffffffffffffffffffffffffffffffffffffffff16908060020154908060030154908060040154908060050160009054906101000a900460ff16908060060180546104169061098a565b80601f01602080910402602001604051908101604052809291908181526020018280546104429061098a565b801561048f5780601f106104645761010080835404028352916020019161048f565b820191906000526020600020905b81548152906001019060200180831161047257829003601f168201915b5050505050905087565b6000800160009054906101000a900473ffffffffffffffffffffffffffffffffffffffff1673ffffffffffffffffffffffffffffffffffffffff163373ffffffffffffffffffffffffffffffffffffffff161461052b576040517f08c379a000000000000000000000000000000000000000000000000000000000815260040161052290610adf565b60405180910390fd5b6000600281111561053f5761053e6106a9565b5b600060050160009054906101000a900460ff166002811115610564576105636106a9565b5b146105a4576040517f08c379a000000000000000000000000000000000000000000000000000000000815260040161059b90610b4b565b60405180910390fd5b6001600060050160006101000a81548160ff021916908360028111156105cd576105cc6106a9565b5b0217905550565b6040518060e00160405280600073ffffffffffffffffffffffffffffffffffffffff168152602001600073ffffffffffffffffffffffffffffffffffffffff16815260200160008152602001600081526020016000815260200160006002811115610642576106416106a9565b5b8152602001606081525090565b600073ffffffffffffffffffffffffffffffffffffffff82169050919050565b600061067a8261064f565b9050919050565b61068a8161066f565b82525050565b6000819050919050565b6106a381610690565b82525050565b7f4e487b7100000000000000000000000000000000000000000000000000000000600052602160045260246000fd5b600381106106e9576106e86106a9565b5b50565b60008190506106fa826106d8565b919050565b600061070a826106ec565b9050919050565b61071a816106ff565b82525050565b600081519050919050565b600082825260208201905092915050565b60005b8381101561075a57808201518184015260208101905061073f565b60008484015250505050565b6000601f19601f8301169050919050565b600061078282610720565b61078c818561072b565b935061079c81856020860161073c565b6107a581610766565b840191505092915050565b600060e0830160008301516107c86000860182610681565b5060208301516107db6020860182610681565b5060408301516107ee604086018261069a565b506060830151610801606086018261069a565b506080830151610814608086018261069a565b5060a083015161082760a0860182610711565b5060c083015184820360c086015261083f8282610777565b9150508091505092915050565b6000602082019050818103600083015261086681846107b0565b905092915050565b6108778161066f565b82525050565b61088681610690565b82525050565b610895816106ff565b82525050565b600082825260208201905092915050565b60006108b782610720565b6108c1818561089b565b93506108d181856020860161073c565b6108da81610766565b840191505092915050565b600060e0820190506108fa600083018a61086e565b610907602083018961086e565b610914604083018861087d565b610921606083018761087d565b61092e608083018661087d565b61093b60a083018561088c565b81810360c083015261094d81846108ac565b905098975050505050505050565b7f4e487b7100000000000000000000000000000000000000000000000000000000600052602260045260246000fd5b600060028204905060018216806109a257607f821691505b6020821081036109b5576109b461095b565b5b50919050565b7f4f6e6c792072656365697665722063616e20636f6d706c657465000000000000600082015250565b60006109f1601a8361089b565b91506109fc826109bb565b602082019050919050565b60006020820190508181036000830152610a20816109e4565b9050919050565b7f4e6f7420696e207472616e736974000000000000000000000000000000000000600082015250565b6000610a5d600e8361089b565b9150610a6882610a27565b602082019050919050565b60006020820190508181036000830152610a8c81610a50565b9050919050565b7f4f6e6c792073656e6465722063616e2073746172740000000000000000000000600082015250565b6000610ac960158361089b565b9150610ad482610a93565b602082019050919050565b60006020820190508181036000830152610af881610abc565b9050919050565b7f416c726561647920737461727465640000000000000000000000000000000000600082015250565b6000610b35600f8361089b565b9150610b4082610aff565b602082019050919050565b60006020820190508181036000830152610b6481610b28565b905091905056fea2646970667358221220ea13a6b3a96ec9a48aa5e7a3d7b4635b1365f0ae9ef09e4d92201171b97eeedb64736f6c63430008140033",
  "linkReferences": {},
  "deployedLinkReferences": {}
}